{
  "contractName": "STAKING",
  "abi": [
    {
      "inputs": [
        {
          "internalType": "contract ERC20",
          "name": "_stakingToken",
          "type": "address"
        }
      ],
      "stateMutability": "nonpayable",
      "type": "constructor"
    },
    {
      "anonymous": false,
      "inputs": [
        {
          "indexed": true,
          "internalType": "address",
          "name": "previousOwner",
          "type": "address"
        },
        {
          "indexed": true,
          "internalType": "address",
          "name": "newOwner",
          "type": "address"
        }
      ],
      "name": "OwnershipTransferred",
      "type": "event"
    },
    {
      "anonymous": false,
      "inputs": [
        {
          "indexed": true,
          "internalType": "address",
          "name": "user",
          "type": "address"
        },
        {
          "indexed": false,
          "internalType": "uint256",
          "name": "amount",
          "type": "uint256"
        },
        {
          "indexed": false,
          "internalType": "uint256",
          "name": "lockPeriod",
          "type": "uint256"
        },
        {
          "indexed": false,
          "internalType": "uint256",
          "name": "rewardRate",
          "type": "uint256"
        }
      ],
      "name": "Staked",
      "type": "event"
    },
    {
      "anonymous": false,
      "inputs": [
        {
          "indexed": true,
          "internalType": "address",
          "name": "user",
          "type": "address"
        },
        {
          "indexed": false,
          "internalType": "uint256",
          "name": "amount",
          "type": "uint256"
        },
        {
          "indexed": false,
          "internalType": "uint256",
          "name": "reward",
          "type": "uint256"
        }
      ],
      "name": "Unstaked",
      "type": "event"
    },
    {
      "inputs": [],
      "name": "owner",
      "outputs": [
        {
          "internalType": "address",
          "name": "",
          "type": "address"
        }
      ],
      "stateMutability": "view",
      "type": "function"
    },
    {
      "inputs": [],
      "name": "renounceOwnership",
      "outputs": [],
      "stateMutability": "nonpayable",
      "type": "function"
    },
    {
      "inputs": [],
      "name": "rewardRate1Days",
      "outputs": [
        {
          "internalType": "uint256",
          "name": "",
          "type": "uint256"
        }
      ],
      "stateMutability": "view",
      "type": "function"
    },
    {
      "inputs": [],
      "name": "rewardRate30Days",
      "outputs": [
        {
          "internalType": "uint256",
          "name": "",
          "type": "uint256"
        }
      ],
      "stateMutability": "view",
      "type": "function"
    },
    {
      "inputs": [],
      "name": "rewardRate7Days",
      "outputs": [
        {
          "internalType": "uint256",
          "name": "",
          "type": "uint256"
        }
      ],
      "stateMutability": "view",
      "type": "function"
    },
    {
      "inputs": [],
      "name": "rewardRate90Days",
      "outputs": [
        {
          "internalType": "uint256",
          "name": "",
          "type": "uint256"
        }
      ],
      "stateMutability": "view",
      "type": "function"
    },
    {
      "inputs": [
        {
          "internalType": "address",
          "name": "",
          "type": "address"
        },
        {
          "internalType": "uint256",
          "name": "",
          "type": "uint256"
        }
      ],
      "name": "stakes",
      "outputs": [
        {
          "internalType": "uint256",
          "name": "amount",
          "type": "uint256"
        },
        {
          "internalType": "uint256",
          "name": "startTime",
          "type": "uint256"
        },
        {
          "internalType": "uint256",
          "name": "endTime",
          "type": "uint256"
        },
        {
          "internalType": "uint256",
          "name": "rewardRate",
          "type": "uint256"
        },
        {
          "internalType": "bool",
          "name": "withdrawn",
          "type": "bool"
        }
      ],
      "stateMutability": "view",
      "type": "function"
    },
    {
      "inputs": [],
      "name": "stakingToken",
      "outputs": [
        {
          "internalType": "contract ERC20",
          "name": "",
          "type": "address"
        }
      ],
      "stateMutability": "view",
      "type": "function"
    },
    {
      "inputs": [
        {
          "internalType": "address",
          "name": "newOwner",
          "type": "address"
        }
      ],
      "name": "transferOwnership",
      "outputs": [],
      "stateMutability": "nonpayable",
      "type": "function"
    },
    {
      "inputs": [
        {
          "internalType": "uint256",
          "name": "_amount",
          "type": "uint256"
        },
        {
          "internalType": "uint256",
          "name": "_lockPeriod",
          "type": "uint256"
        }
      ],
      "name": "stake",
      "outputs": [],
      "stateMutability": "nonpayable",
      "type": "function"
    },
    {
      "inputs": [
        {
          "internalType": "uint256",
          "name": "_stakeIndex",
          "type": "uint256"
        }
      ],
      "name": "unstake",
      "outputs": [],
      "stateMutability": "nonpayable",
      "type": "function"
    },
    {
      "inputs": [
        {
          "internalType": "address",
          "name": "_user",
          "type": "address"
        }
      ],
      "name": "getUserStakes",
      "outputs": [
        {
          "components": [
            {
              "internalType": "uint256",
              "name": "amount",
              "type": "uint256"
            },
            {
              "internalType": "uint256",
              "name": "startTime",
              "type": "uint256"
            },
            {
              "internalType": "uint256",
              "name": "endTime",
              "type": "uint256"
            },
            {
              "internalType": "uint256",
              "name": "rewardRate",
              "type": "uint256"
            },
            {
              "internalType": "bool",
              "name": "withdrawn",
              "type": "bool"
            }
          ],
          "internalType": "struct STAKING.Stake[]",
          "name": "",
          "type": "tuple[]"
        }
      ],
      "stateMutability": "view",
      "type": "function"
    },
    {
      "inputs": [
        {
          "internalType": "uint256",
          "name": "_rewardRate1Days",
          "type": "uint256"
        },
        {
          "internalType": "uint256",
          "name": "_rewardRate7Days",
          "type": "uint256"
        },
        {
          "internalType": "uint256",
          "name": "_rewardRate30Days",
          "type": "uint256"
        },
        {
          "internalType": "uint256",
          "name": "_rewardRate90Days",
          "type": "uint256"
        }
      ],
      "name": "setRewardRate",
      "outputs": [],
      "stateMutability": "nonpayable",
      "type": "function"
    },
    {
      "inputs": [
        {
          "internalType": "uint256",
          "name": "_lockPeriod",
          "type": "uint256"
        }
      ],
      "name": "getRewardRate",
      "outputs": [
        {
          "internalType": "uint256",
          "name": "",
          "type": "uint256"
        }
      ],
      "stateMutability": "view",
      "type": "function"
    },
    {
      "inputs": [
        {
          "internalType": "address",
          "name": "_user",
          "type": "address"
        },
        {
          "internalType": "uint256",
          "name": "_stakeIndex",
          "type": "uint256"
        }
      ],
      "name": "calculateReward",
      "outputs": [
        {
          "internalType": "uint256",
          "name": "",
          "type": "uint256"
        }
      ],
      "stateMutability": "view",
      "type": "function"
    }
  ],
  "bytecode": "0x60806040526005600255603260035560d26004556103e8600555348015610024575f5ffd5b50604051610d81380380610d81833981016040819052610043916100c0565b61004c33610071565b600180546001600160a01b0319166001600160a01b03929092169190911790556100ed565b5f80546001600160a01b038381166001600160a01b0319831681178455604051919092169283917f8be0079c531659141344cd1fd0a4f28419497f9722a3daafe3b4186f6b6457e09190a35050565b5f602082840312156100d0575f5ffd5b81516001600160a01b03811681146100e6575f5ffd5b9392505050565b610c87806100fa5f395ff3fe608060405234801561000f575f5ffd5b50600436106100f0575f3560e01c80636cac47d611610093578063842e298111610063578063842e2981146101e95780638da5cb5b14610209578063a651356214610219578063f2fde38b1461022c575f5ffd5b80636cac47d614610190578063715018a6146101a357806372f702f3146101ab5780637b0472f0146101d6575f5ffd5b80632e17de78116100ce5780632e17de781461012c57806349730fc1146101415780634e29d0591461014a578063584b62a114610153575f5ffd5b8063095b1d90146100f45780631852e8d914610110578063273223d114610123575b5f5ffd5b6100fd60045481565b6040519081526020015b60405180910390f35b6100fd61011e366004610a9f565b61023f565b6100fd60055481565b61013f61013a366004610ac7565b6102e4565b005b6100fd60035481565b6100fd60025481565b610166610161366004610a9f565b610559565b6040805195865260208601949094529284019190915260608301521515608082015260a001610107565b61013f61019e366004610ade565b6105a6565b61013f6105c2565b6001546101be906001600160a01b031681565b6040516001600160a01b039091168152602001610107565b61013f6101e4366004610b0d565b6105d5565b6101fc6101f7366004610b2d565b61082e565b6040516101079190610b4d565b5f546001600160a01b03166101be565b6100fd610227366004610ac7565b6108d2565b61013f61023a366004610b2d565b610963565b6001600160a01b0382165f90815260066020526040812080548291908490811061026b5761026b610bc1565b5f9182526020918290206040805160a0810182526005909302909101805480845260018201549484019490945260028101549183019190915260038101546060830181905260049091015460ff16151560808301529092506064916102d09190610be9565b6102da9190610c00565b9150505b92915050565b335f9081526006602052604090205481106103465760405162461bcd60e51b815260206004820152601a60248201527f4d696e65583a20496e76616c6964207374616b6520696e64657800000000000060448201526064015b60405180910390fd5b335f90815260066020526040812080548390811061036657610366610bc1565b905f5260205f209060050201905080600201544210156103bc5760405162461bcd60e51b81526020600482015260116024820152701dd85a5d08199bdc881d5b9b1bd8dad959607a1b604482015260640161033d565b600481015460ff16156104115760405162461bcd60e51b815260206004820152601e60248201527f4d696e65583a205374616b6520616c72656164792077697468647261776e0000604482015260640161033d565b80545f61041e338561023f565b6001546040516340c10f1960e01b8152306004820152602481018390529192506001600160a01b0316906340c10f19906044015f604051808303815f87803b158015610468575f5ffd5b505af115801561047a573d5f5f3e3d5ffd5b50505060048401805460ff19166001908117909155546001600160a01b0316905063a9059cbb336104ab8486610c1f565b6040516001600160e01b031960e085901b1681526001600160a01b03909216600483015260248201526044016020604051808303815f875af11580156104f3573d5f5f3e3d5ffd5b505050506040513d601f19601f820116820180604052508101906105179190610c32565b50604080518381526020810183905233917f7fc4727e062e336010f2c282598ef5f14facb3de68cf8195c2f23e1454b2b74e910160405180910390a250505050565b6006602052815f5260405f208181548110610572575f80fd5b5f91825260209091206005909102018054600182015460028301546003840154600490940154929550909350919060ff1685565b6105ae6109dc565b600293909355600391909155600455600555565b6105ca6109dc565b6105d35f610a35565b565b68a2a15d09519be000008210156106415760405162461bcd60e51b815260206004820152602a60248201527f4d696e65583a2043616e6e6f74207374616b6520206c657373207468616e203360448201526930303020746f6b656e7360b01b606482015260840161033d565b8062015180148061065457508062093a80145b8061066157508062278d00145b8061066e5750806276a700145b6106ba5760405162461bcd60e51b815260206004820152601a60248201527f4d696e65583a20496e76616c6964206c6f636b20706572696f64000000000000604482015260640161033d565b5f6106c4826108d2565b6001546040516323b872dd60e01b8152336004820152306024820152604481018690529192506001600160a01b0316906323b872dd906064016020604051808303815f875af1158015610719573d5f5f3e3d5ffd5b505050506040513d601f19601f8201168201806040525081019061073d9190610c32565b5060065f336001600160a01b03166001600160a01b031681526020019081526020015f206040518060a0016040528085815260200142815260200184426107849190610c1f565b815260208082018590525f6040928301819052845460018082018755958252908290208451600590920201908155838201519481019490945582820151600285015560608084015160038601556080909301516004909401805460ff1916941515949094179093558051868152928301859052820183905233917fb4caaf29adda3eefee3ad552a8e85058589bf834c7466cae4ee58787f70589ed910160405180910390a2505050565b6001600160a01b0381165f908152600660209081526040808320805482518185028101850190935280835260609492939192909184015b828210156108c7575f8481526020908190206040805160a081018252600586029092018054835260018082015484860152600282015492840192909252600381015460608401526004015460ff16151560808301529083529092019101610865565b505050509050919050565b5f8162015180036108e557505060025490565b8162093a80036108f757505060035490565b8162278d000361090957505060045490565b816276a7000361091b57505060055490565b60405162461bcd60e51b815260206004820152601a60248201527f4d696e65583a20496e76616c6964206c6f636b20706572696f64000000000000604482015260640161033d565b61096b6109dc565b6001600160a01b0381166109d05760405162461bcd60e51b815260206004820152602660248201527f4f776e61626c653a206e6577206f776e657220697320746865207a65726f206160448201526564647265737360d01b606482015260840161033d565b6109d981610a35565b50565b5f546001600160a01b031633146105d35760405162461bcd60e51b815260206004820181905260248201527f4f776e61626c653a2063616c6c6572206973206e6f7420746865206f776e6572604482015260640161033d565b5f80546001600160a01b038381166001600160a01b0319831681178455604051919092169283917f8be0079c531659141344cd1fd0a4f28419497f9722a3daafe3b4186f6b6457e09190a35050565b80356001600160a01b0381168114610a9a575f5ffd5b919050565b5f5f60408385031215610ab0575f5ffd5b610ab983610a84565b946020939093013593505050565b5f60208284031215610ad7575f5ffd5b5035919050565b5f5f5f5f60808587031215610af1575f5ffd5b5050823594602084013594506040840135936060013592509050565b5f5f60408385031215610b1e575f5ffd5b50508035926020909101359150565b5f60208284031215610b3d575f5ffd5b610b4682610a84565b9392505050565b602080825282518282018190525f918401906040840190835b81811015610bb6578351805184526020810151602085015260408101516040850152606081015160608501526080810151151560808501525060a083019250602084019350600181019050610b66565b509095945050505050565b634e487b7160e01b5f52603260045260245ffd5b634e487b7160e01b5f52601160045260245ffd5b80820281158282048414176102de576102de610bd5565b5f82610c1a57634e487b7160e01b5f52601260045260245ffd5b500490565b808201808211156102de576102de610bd5565b5f60208284031215610c42575f5ffd5b81518015158114610b46575f5ffdfea2646970667358221220297110e8369276de67be556a383e66678cdb910fee4b06ee8fb4af3f893caca964736f6c634300081d0033",
  "immutableReferences": {},
  "source": "/**\r\n *Submitted for verification at BscScan.com on 2025-04-11\r\n*/\r\n\r\n// SPDX-License-Identifier: MIT\r\npragma solidity 0.8.29;\r\n\r\n/**\r\n * @dev Provides information about the current execution context, including the\r\n * sender of the transaction and its data. While these are generally available\r\n * via msg.sender and msg.data, they should not be accessed in such a direct\r\n * manner, since when dealing with meta-transactions the account sending and\r\n * paying for execution may not be the actual sender (as far as an application\r\n * is concerned).\r\n *\r\n * This contract is only required for intermediate, library-like contracts.\r\n */\r\nabstract contract Context {\r\n    function _msgSender() internal view virtual returns (address) {\r\n        return msg.sender;\r\n    }\r\n}\r\n\r\n/**\r\n * @dev Contract module which provides a basic access control mechanism, where\r\n * there is an account (an owner) that can be granted exclusive access to\r\n * specific functions.\r\n *\r\n * By default, the owner account will be the one that deploys the contract. This\r\n * can later be changed with {transferOwnership}.\r\n *\r\n * This module is used through inheritance. It will make available the modifier\r\n * `onlyOwner`, which can be applied to your functions to restrict their use to\r\n * the owner.\r\n */\r\nabstract contract Ownable is Context {\r\n    address private _owner;\r\n\r\n    event OwnershipTransferred(address indexed previousOwner, address indexed newOwner);\r\n\r\n    /**\r\n     * @dev Initializes the contract setting the deployer as the initial owner.\r\n     */\r\n    constructor() {\r\n        _transferOwnership(_msgSender());\r\n    }\r\n\r\n    /**\r\n     * @dev Throws if called by any account other than the owner.\r\n     */\r\n    modifier onlyOwner() {\r\n        _checkOwner();\r\n        _;\r\n    }\r\n\r\n    /**\r\n     * @dev Returns the address of the current owner.\r\n     */\r\n    function owner() public view virtual returns (address) {\r\n        return _owner;\r\n    }\r\n\r\n    /**\r\n     * @dev Throws if the sender is not the owner.\r\n     */\r\n    function _checkOwner() internal view virtual {\r\n        require(owner() == _msgSender(), \"Ownable: caller is not the owner\");\r\n    }\r\n\r\n    /**\r\n     * @dev Leaves the contract without owner. It will not be possible to call\r\n     * `onlyOwner` functions. Can only be called by the current owner.\r\n     *\r\n     * NOTE: Renouncing ownership will leave the contract without an owner,\r\n     * thereby disabling any functionality that is only available to the owner.\r\n     */\r\n    function renounceOwnership() public virtual onlyOwner {\r\n        _transferOwnership(address(0));\r\n    }\r\n\r\n    /**\r\n     * @dev Transfers ownership of the contract to a new account (`newOwner`).\r\n     * Can only be called by the current owner.\r\n     */\r\n    function transferOwnership(address newOwner) public virtual onlyOwner {\r\n        require(newOwner != address(0), \"Ownable: new owner is the zero address\");\r\n        _transferOwnership(newOwner);\r\n    }\r\n\r\n    /**\r\n     * @dev Transfers ownership of the contract to a new account (`newOwner`).\r\n     * Internal function without access restriction.\r\n     */\r\n    function _transferOwnership(address newOwner) internal virtual {\r\n        address oldOwner = _owner;\r\n        _owner = newOwner;\r\n        emit OwnershipTransferred(oldOwner, newOwner);\r\n    }\r\n}\r\n\r\n\r\n/**\r\n * @dev Interface of the ERC20 standard as defined in the EIP.\r\n */\r\ninterface IERC20 {\r\n    /**\r\n     * @dev Emitted when `value` tokens are moved from one account (`from`) to\r\n     * another (`to`).\r\n     *\r\n     * Note that `value` may be zero.\r\n     */\r\n    event Transfer(address indexed from, address indexed to, uint256 value);\r\n\r\n    /**\r\n     * @dev Emitted when the allowance of a `spender` for an `owner` is set by\r\n     * a call to {approve}. `value` is the new allowance.\r\n     */\r\n    event Approval(address indexed owner, address indexed spender, uint256 value);\r\n\r\n    /**\r\n     * @dev Returns the amount of tokens in existence.\r\n     */\r\n    function totalSupply() external view returns (uint256);\r\n\r\n    /**\r\n     * @dev Returns the amount of tokens owned by `account`.\r\n     */\r\n    function balanceOf(address account) external view returns (uint256);\r\n\r\n    /**\r\n     * @dev Moves `amount` tokens from the caller's account to `to`.\r\n     *\r\n     * Returns a boolean value indicating whether the operation succeeded.\r\n     *\r\n     * Emits a {Transfer} event.\r\n     */\r\n    function transfer(address to, uint256 amount) external returns (bool);\r\n\r\n    /**\r\n     * @dev Returns the remaining number of tokens that `spender` will be\r\n     * allowed to spend on behalf of `owner` through {transferFrom}. This is\r\n     * zero by default.\r\n     *\r\n     * This value changes when {approve} or {transferFrom} are called.\r\n     */\r\n    function allowance(address owner, address spender) external view returns (uint256);\r\n\r\n    /**\r\n     * @dev Sets `amount` as the allowance of `spender` over the caller's tokens.\r\n     *\r\n     * Returns a boolean value indicating whether the operation succeeded.\r\n     *\r\n     * IMPORTANT: Beware that changing an allowance with this method brings the risk\r\n     * that someone may use both the old and the new allowance by unfortunate\r\n     * transaction ordering. One possible solution to mitigate this race\r\n     * condition is to first reduce the spender's allowance to 0 and set the\r\n     * desired value afterwards:\r\n     * https://github.com/ethereum/EIPs/issues/20#issuecomment-263524729\r\n     *\r\n     * Emits an {Approval} event.\r\n     */\r\n    function approve(address spender, uint256 amount) external returns (bool);\r\n\r\n    /**\r\n     * @dev Moves `amount` tokens from `from` to `to` using the\r\n     * allowance mechanism. `amount` is then deducted from the caller's\r\n     * allowance.\r\n     *\r\n     * Returns a boolean value indicating whether the operation succeeded.\r\n     *\r\n     * Emits a {Transfer} event.\r\n     */\r\n    function transferFrom(address from, address to, uint256 amount) external returns (bool);\r\n}\r\n\r\n\r\n/**\r\n * @dev Interface for the optional metadata functions from the ERC20 standard.\r\n *\r\n * _Available since v4.1._\r\n */\r\ninterface IERC20Metadata is IERC20 {\r\n    /**\r\n     * @dev Returns the name of the token.\r\n     */\r\n    function name() external view returns (string memory);\r\n\r\n    /**\r\n     * @dev Returns the symbol of the token.\r\n     */\r\n    function symbol() external view returns (string memory);\r\n\r\n    /**\r\n     * @dev Returns the decimals places of the token.\r\n     */\r\n    function decimals() external view returns (uint8);\r\n}\r\n\r\n/**\r\n * @dev Implementation of the {IERC20} interface.\r\n *\r\n * This implementation is agnostic to the way tokens are created. This means\r\n * that a supply mechanism has to be added in a derived contract using {_mint}.\r\n * For a generic mechanism see {ERC20PresetMinterPauser}.\r\n *\r\n * TIP: For a detailed writeup see our guide\r\n * https://forum.zeppelin.solutions/t/how-to-implement-erc20-supply-mechanisms/226[How\r\n * to implement supply mechanisms].\r\n *\r\n * We have followed general OpenZeppelin guidelines: functions revert instead\r\n * of returning `false` on failure. This behavior is nonetheless conventional\r\n * and does not conflict with the expectations of ERC20 applications.\r\n *\r\n * Additionally, an {Approval} event is emitted on calls to {transferFrom}.\r\n * This allows applications to reconstruct the allowance for all accounts just\r\n * by listening to said events. Other implementations of the EIP may not emit\r\n * these events, as it isn't required by the specification.\r\n *\r\n * Finally, the non-standard {decreaseAllowance} and {increaseAllowance}\r\n * functions have been added to mitigate the well-known issues around setting\r\n * allowances. See {IERC20-approve}.\r\n */\r\ncontract ERC20 is Context, IERC20, IERC20Metadata {\r\n\r\n    mapping(address => uint256) private _balances;\r\n\r\n    mapping(address => mapping(address => uint256)) private _allowances;\r\n\r\n    uint256 private _totalSupply;\r\n\r\n    string private _name;\r\n    string private _symbol;\r\n\r\n    /**\r\n     * @dev Sets the values for {name} and {symbol}.\r\n     *\r\n     * The default value of {decimals} is 18. To select a different value for\r\n     * {decimals} you should overload it.\r\n     *\r\n     * All two of these values are immutable: they can only be set once during\r\n     * construction.\r\n     */\r\n    constructor(string memory name_, string memory symbol_)  {\r\n        _name = name_;\r\n        _symbol = symbol_;\r\n    }\r\n\r\n    /**\r\n     * @dev Returns the name of the token.\r\n     */\r\n    function name() public view virtual override returns (string memory) {\r\n        return _name;\r\n    }\r\n\r\n    /**\r\n     * @dev Returns the symbol of the token, usually a shorter version of the\r\n     * name.\r\n     */\r\n    function symbol() public view virtual override returns (string memory) {\r\n        return _symbol;\r\n    }\r\n\r\n    /**\r\n     * @dev Returns the number of decimals used to get its user representation.\r\n     * For example, if `decimals` equals `2`, a balance of `505` tokens should\r\n     * be displayed to a user as `5,05` (`505 / 10 ** 2`).\r\n     *\r\n     * Tokens usually opt for a value of 18, imitating the relationship between\r\n     * Ether and Wei. This is the value {ERC20} uses, unless this function is\r\n     * overridden;\r\n     *\r\n     * NOTE: This information is only used for _display_ purposes: it in\r\n     * no way affects any of the arithmetic of the contract, including\r\n     * {IERC20-balanceOf} and {IERC20-transfer}.\r\n     */\r\n    function decimals() public view virtual override returns (uint8) {\r\n        return 18;\r\n    }\r\n\r\n    /**\r\n     * @dev See {IERC20-totalSupply}.\r\n     */\r\n    function totalSupply() public view virtual override returns (uint256) {\r\n        return _totalSupply;\r\n    }\r\n\r\n    /**\r\n     * @dev See {IERC20-balanceOf}.\r\n     */\r\n    function balanceOf(address account) public view virtual override returns (uint256) {\r\n        return _balances[account];\r\n    }\r\n\r\n    /**\r\n     * @dev See {IERC20-transfer}.\r\n     *\r\n     * Requirements:\r\n     *\r\n     * - `recipient` cannot be the zero address.\r\n     * - the caller must have a balance of at least `amount`.\r\n     */\r\n    function transfer(address recipient, uint256 amount) public virtual override returns (bool) {\r\n        _transfer(_msgSender(), recipient, amount);\r\n        return true;\r\n    }\r\n\r\n    /**\r\n     * @dev See {IERC20-allowance}.\r\n     */\r\n    function allowance(address owner, address spender) public view virtual override returns (uint256) {\r\n        return _allowances[owner][spender];\r\n    }\r\n\r\n    /**\r\n     * @dev See {IERC20-approve}.\r\n     *\r\n     * Requirements:\r\n     *\r\n     * - `spender` cannot be the zero address.\r\n     */\r\n    function approve(address spender, uint256 amount) public virtual override returns (bool) {\r\n        _approve(_msgSender(), spender, amount);\r\n        return true;\r\n    }\r\n\r\n    /**\r\n     * @dev See {IERC20-transferFrom}.\r\n     *\r\n     * Emits an {Approval} event indicating the updated allowance. This is not\r\n     * required by the EIP. See the note at the beginning of {ERC20}.\r\n     *\r\n     * Requirements:\r\n     *\r\n     * - `sender` and `recipient` cannot be the zero address.\r\n     * - `sender` must have a balance of at least `amount`.\r\n     * - the caller must have allowance for ``sender``'s tokens of at least\r\n     * `amount`.\r\n     */\r\n    function transferFrom(\r\n        address sender,\r\n        address recipient,\r\n        uint256 amount\r\n    ) public virtual override returns (bool) {\r\n        _transfer(sender, recipient, amount);\r\n        _approve(sender, _msgSender(), (_allowances[sender][_msgSender()] - amount));\r\n        return true;\r\n    }\r\n\r\n    /**\r\n     * @dev Moves tokens `amount` from `sender` to `recipient`.\r\n     *\r\n     * This is internal function is equivalent to {transfer}, and can be used to\r\n     * e.g. implement automatic token fees, slashing mechanisms, etc.\r\n     *\r\n     * Emits a {Transfer} event.\r\n     *\r\n     * Requirements:\r\n     *\r\n     * - `sender` cannot be the zero address.\r\n     * - `recipient` cannot be the zero address.\r\n     * - `sender` must have a balance of at least `amount`.\r\n     */\r\n    function _transfer(\r\n        address sender,\r\n        address recipient,\r\n        uint256 amount\r\n    ) internal virtual {\r\n        require(sender != address(0), \"ERC20: transfer from the zero address\");\r\n        require(recipient != address(0), \"ERC20: transfer to the zero address\");\r\n\r\n        _beforeTokenTransfer(sender, recipient, amount);\r\n\r\n        _balances[sender] = (_balances[sender]-amount);\r\n        _balances[recipient] = (_balances[recipient]+amount);\r\n        emit Transfer(sender, recipient, amount);\r\n    }\r\n\r\n    /** @dev Creates `amount` tokens and assigns them to `account`, increasing\r\n     * the total supply.\r\n     *\r\n     * Emits a {Transfer} event with `from` set to the zero address.\r\n     *\r\n     * Requirements:\r\n     *\r\n     * - `account` cannot be the zero address.\r\n     */\r\n    function _mint(address account, uint256 amount) internal virtual {\r\n        require(account != address(0), \"ERC20: mint to the zero address\");\r\n\r\n        _beforeTokenTransfer(address(0), account, amount);\r\n\r\n        _totalSupply = _totalSupply+amount;\r\n        _balances[account] = (_balances[account]+amount);\r\n        emit Transfer(address(0), account, amount);\r\n    }\r\n\r\n    function mint(address _to, uint256 _amount) external   {\r\n        _mint(_to, _amount);\r\n    }\r\n\r\n    /**\r\n     * @dev Destroys `amount` tokens from `account`, reducing the\r\n     * total supply.\r\n     *\r\n     * Emits a {Transfer} event with `to` set to the zero address.\r\n     *\r\n     * Requirements:\r\n     *\r\n     * - `account` cannot be the zero address.\r\n     * - `account` must have at least `amount` tokens.\r\n     */\r\n    function _burn(address account, uint256 amount) internal virtual {\r\n        require(account != address(0), \"ERC20: burn from the zero address\");\r\n\r\n        _beforeTokenTransfer(account, address(0), amount);\r\n\r\n        _balances[account] = (_balances[account]-amount);\r\n        _totalSupply = (_totalSupply-amount);\r\n        emit Transfer(account, address(0), amount);\r\n    }\r\n\r\n    /**\r\n     * @dev Sets `amount` as the allowance of `spender` over the `owner` s tokens.\r\n     *\r\n     * This internal function is equivalent to `approve`, and can be used to\r\n     * e.g. set automatic allowances for certain subsystems, etc.\r\n     *\r\n     * Emits an {Approval} event.\r\n     *\r\n     * Requirements:\r\n     *\r\n     * - `owner` cannot be the zero address.\r\n     * - `spender` cannot be the zero address.\r\n     */\r\n    function _approve(\r\n        address owner,\r\n        address spender,\r\n        uint256 amount\r\n    ) internal virtual {\r\n        require(owner != address(0), \"ERC20: approve from the zero address\");\r\n        require(spender != address(0), \"ERC20: approve to the zero address\");\r\n\r\n        _allowances[owner][spender] = amount;\r\n        emit Approval(owner, spender, amount);\r\n    }\r\n\r\n    /**\r\n     * @dev Hook that is called before any transfer of tokens. This includes\r\n     * minting and burning.\r\n     *\r\n     * Calling conditions:\r\n     *\r\n     * - when `from` and `to` are both non-zero, `amount` of ``from``'s tokens\r\n     * will be to transferred to `to`.\r\n     * - when `from` is zero, `amount` tokens will be minted for `to`.\r\n     * - when `to` is zero, `amount` of ``from``'s tokens will be burned.\r\n     * - `from` and `to` are never both zero.\r\n     *\r\n     * To learn more about hooks, head to xref:ROOT:extending-contracts.adoc#using-hooks[Using Hooks].\r\n     */\r\n    function _beforeTokenTransfer(\r\n        address from,\r\n        address to,\r\n        uint256 amount\r\n    ) internal virtual {}\r\n}\r\n\r\n/**\r\n * @dev Collection of functions related to the address type\r\n */\r\nlibrary Address {\r\n    /**\r\n     * @dev The ETH balance of the account is not enough to perform the operation.\r\n     */\r\n    error AddressInsufficientBalance(address account);\r\n\r\n    /**\r\n     * @dev There's no code at `target` (it is not a contract).\r\n     */\r\n    error AddressEmptyCode(address target);\r\n\r\n    /**\r\n     * @dev A call to an address target failed. The target may have reverted.\r\n     */\r\n    error FailedInnerCall();\r\n\r\n    /**\r\n     * @dev Replacement for Solidity's `transfer`: sends `amount` wei to\r\n     * `recipient`, forwarding all available gas and reverting on errors.\r\n     *\r\n     * https://eips.ethereum.org/EIPS/eip-1884[EIP1884] increases the gas cost\r\n     * of certain opcodes, possibly making contracts go over the 2300 gas limit\r\n     * imposed by `transfer`, making them unable to receive funds via\r\n     * `transfer`. {sendValue} removes this limitation.\r\n     *\r\n     * https://consensys.net/diligence/blog/2019/09/stop-using-soliditys-transfer-now/[Learn more].\r\n     *\r\n     * IMPORTANT: because control is transferred to `recipient`, care must be\r\n     * taken to not create reentrancy vulnerabilities. Consider using\r\n     * {ReentrancyGuard} or the\r\n     * https://solidity.readthedocs.io/en/v0.8.20/security-considerations.html#use-the-checks-effects-interactions-pattern[checks-effects-interactions pattern].\r\n     */\r\n    function sendValue(address payable recipient, uint256 amount) internal {\r\n        if (address(this).balance < amount) {\r\n            revert AddressInsufficientBalance(address(this));\r\n        }\r\n\r\n        (bool success, ) = recipient.call{value: amount}(\"\");\r\n        if (!success) {\r\n            revert FailedInnerCall();\r\n        }\r\n    }\r\n\r\n    /**\r\n     * @dev Performs a Solidity function call using a low level `call`. A\r\n     * plain `call` is an unsafe replacement for a function call: use this\r\n     * function instead.\r\n     *\r\n     * If `target` reverts with a revert reason or custom error, it is bubbled\r\n     * up by this function (like regular Solidity function calls). However, if\r\n     * the call reverted with no returned reason, this function reverts with a\r\n     * {FailedInnerCall} error.\r\n     *\r\n     * Returns the raw returned data. To convert to the expected return value,\r\n     * use https://solidity.readthedocs.io/en/latest/units-and-global-variables.html?highlight=abi.decode#abi-encoding-and-decoding-functions[`abi.decode`].\r\n     *\r\n     * Requirements:\r\n     *\r\n     * - `target` must be a contract.\r\n     * - calling `target` with `data` must not revert.\r\n     */\r\n    function functionCall(\r\n        address target,\r\n        bytes memory data\r\n    ) internal returns (bytes memory) {\r\n        return functionCallWithValue(target, data, 0);\r\n    }\r\n\r\n    /**\r\n     * @dev Same as {xref-Address-functionCall-address-bytes-}[`functionCall`],\r\n     * but also transferring `value` wei to `target`.\r\n     *\r\n     * Requirements:\r\n     *\r\n     * - the calling contract must have an ETH balance of at least `value`.\r\n     * - the called Solidity function must be `payable`.\r\n     */\r\n    function functionCallWithValue(\r\n        address target,\r\n        bytes memory data,\r\n        uint256 value\r\n    ) internal returns (bytes memory) {\r\n        if (address(this).balance < value) {\r\n            revert AddressInsufficientBalance(address(this));\r\n        }\r\n        (bool success, bytes memory returndata) = target.call{value: value}(\r\n            data\r\n        );\r\n        return verifyCallResultFromTarget(target, success, returndata);\r\n    }\r\n\r\n    /**\r\n     * @dev Same as {xref-Address-functionCall-address-bytes-}[`functionCall`],\r\n     * but performing a static call.\r\n     */\r\n    function functionStaticCall(\r\n        address target,\r\n        bytes memory data\r\n    ) internal view returns (bytes memory) {\r\n        (bool success, bytes memory returndata) = target.staticcall(data);\r\n        return verifyCallResultFromTarget(target, success, returndata);\r\n    }\r\n\r\n    /**\r\n     * @dev Same as {xref-Address-functionCall-address-bytes-}[`functionCall`],\r\n     * but performing a delegate call.\r\n     */\r\n    function functionDelegateCall(\r\n        address target,\r\n        bytes memory data\r\n    ) internal returns (bytes memory) {\r\n        (bool success, bytes memory returndata) = target.delegatecall(data);\r\n        return verifyCallResultFromTarget(target, success, returndata);\r\n    }\r\n\r\n    /**\r\n     * @dev Tool to verify that a low level call to smart-contract was successful, and reverts if the target\r\n     * was not a contract or bubbling up the revert reason (falling back to {FailedInnerCall}) in case of an\r\n     * unsuccessful call.\r\n     */\r\n    function verifyCallResultFromTarget(\r\n        address target,\r\n        bool success,\r\n        bytes memory returndata\r\n    ) internal view returns (bytes memory) {\r\n        if (!success) {\r\n            _revert(returndata);\r\n        } else {\r\n            // only check if target is a contract if the call was successful and the return data is empty\r\n            // otherwise we already know that it was a contract\r\n            if (returndata.length == 0 && target.code.length == 0) {\r\n                revert AddressEmptyCode(target);\r\n            }\r\n            return returndata;\r\n        }\r\n    }\r\n\r\n    /**\r\n     * @dev Tool to verify that a low level call was successful, and reverts if it wasn't, either by bubbling the\r\n     * revert reason or with a default {FailedInnerCall} error.\r\n     */\r\n    function verifyCallResult(\r\n        bool success,\r\n        bytes memory returndata\r\n    ) internal pure returns (bytes memory) {\r\n        if (!success) {\r\n            _revert(returndata);\r\n        } else {\r\n            return returndata;\r\n        }\r\n    }\r\n\r\n    /**\r\n     * @dev Reverts with returndata if present. Otherwise reverts with {FailedInnerCall}.\r\n     */\r\n    function _revert(bytes memory returndata) private pure {\r\n        // Look for revert reason and bubble it up if present\r\n        if (returndata.length > 0) {\r\n            // The easiest way to bubble the revert reason is using memory via assembly\r\n            /// @solidity memory-safe-assembly\r\n            assembly {\r\n                let returndata_size := mload(returndata)\r\n                revert(add(32, returndata), returndata_size)\r\n            }\r\n        } else {\r\n            revert FailedInnerCall();\r\n        }\r\n    }\r\n}\r\n\r\n/**\r\n * @title SafeERC20\r\n * @dev Wrappers around ERC20 operations that throw on failure (when the token\r\n * contract returns false). Tokens that return no value (and instead revert or\r\n * throw on failure) are also supported, non-reverting calls are assumed to be\r\n * successful.\r\n * To use this library you can add a `using SafeERC20 for IERC20;` statement to your contract,\r\n * which allows you to call the safe operations as `token.safeTransfer(...)`, etc.\r\n */\r\nlibrary SafeERC20 {\r\n    using Address for address;\r\n\r\n    /**\r\n     * @dev An operation with an ERC20 token failed.\r\n     */\r\n    error SafeERC20FailedOperation(address token);\r\n\r\n    /**\r\n     * @dev Indicates a failed `decreaseAllowance` request.\r\n     */\r\n    error SafeERC20FailedDecreaseAllowance(\r\n        address spender,\r\n        uint256 currentAllowance,\r\n        uint256 requestedDecrease\r\n    );\r\n\r\n    /**\r\n     * @dev Transfer `value` amount of `token` from the calling contract to `to`. If `token` returns no value,\r\n     * non-reverting calls are assumed to be successful.\r\n     */\r\n    function safeTransfer(IERC20 token, address to, uint256 value) internal {\r\n        _callOptionalReturn(token, abi.encodeCall(token.transfer, (to, value)));\r\n    }\r\n\r\n    /**\r\n     * @dev Transfer `value` amount of `token` from `from` to `to`, spending the approval given by `from` to the\r\n     * calling contract. If `token` returns no value, non-reverting calls are assumed to be successful.\r\n     */\r\n    function safeTransferFrom(\r\n        IERC20 token,\r\n        address from,\r\n        address to,\r\n        uint256 value\r\n    ) internal {\r\n        _callOptionalReturn(\r\n            token,\r\n            abi.encodeCall(token.transferFrom, (from, to, value))\r\n        );\r\n    }\r\n\r\n    /**\r\n     * @dev Increase the calling contract's allowance toward `spender` by `value`. If `token` returns no value,\r\n     * non-reverting calls are assumed to be successful.\r\n     */\r\n    function safeIncreaseAllowance(\r\n        IERC20 token,\r\n        address spender,\r\n        uint256 value\r\n    ) internal {\r\n        uint256 oldAllowance = token.allowance(address(this), spender);\r\n        forceApprove(token, spender, oldAllowance + value);\r\n    }\r\n\r\n    /**\r\n     * @dev Decrease the calling contract's allowance toward `spender` by `requestedDecrease`. If `token` returns no\r\n     * value, non-reverting calls are assumed to be successful.\r\n     */\r\n    function safeDecreaseAllowance(\r\n        IERC20 token,\r\n        address spender,\r\n        uint256 requestedDecrease\r\n    ) internal {\r\n        unchecked {\r\n            uint256 currentAllowance = token.allowance(address(this), spender);\r\n            if (currentAllowance < requestedDecrease) {\r\n                revert SafeERC20FailedDecreaseAllowance(\r\n                    spender,\r\n                    currentAllowance,\r\n                    requestedDecrease\r\n                );\r\n            }\r\n            forceApprove(token, spender, currentAllowance - requestedDecrease);\r\n        }\r\n    }\r\n\r\n    /**\r\n     * @dev Set the calling contract's allowance toward `spender` to `value`. If `token` returns no value,\r\n     * non-reverting calls are assumed to be successful. Meant to be used with tokens that require the approval\r\n     * to be set to zero before setting it to a non-zero value, such as USDT.\r\n     */\r\n    function forceApprove(\r\n        IERC20 token,\r\n        address spender,\r\n        uint256 value\r\n    ) internal {\r\n        bytes memory approvalCall = abi.encodeCall(\r\n            token.approve,\r\n            (spender, value)\r\n        );\r\n\r\n        if (!_callOptionalReturnBool(token, approvalCall)) {\r\n            _callOptionalReturn(\r\n                token,\r\n                abi.encodeCall(token.approve, (spender, 0))\r\n            );\r\n            _callOptionalReturn(token, approvalCall);\r\n        }\r\n    }\r\n\r\n    /**\r\n     * @dev Imitates a Solidity high-level call (i.e. a regular function call to a contract), relaxing the requirement\r\n     * on the return value: the return value is optional (but if data is returned, it must not be false).\r\n     * @param token The token targeted by the call.\r\n     * @param data The call data (encoded using abi.encode or one of its variants).\r\n     */\r\n    function _callOptionalReturn(IERC20 token, bytes memory data) private {\r\n        // We need to perform a low level call here, to bypass Solidity's return data size checking mechanism, since\r\n        // we're implementing it ourselves. We use {Address-functionCall} to perform this call, which verifies that\r\n        // the target address contains contract code and also asserts for success in the low-level call.\r\n\r\n        bytes memory returndata = address(token).functionCall(data);\r\n        if (returndata.length != 0 && !abi.decode(returndata, (bool))) {\r\n            revert SafeERC20FailedOperation(address(token));\r\n        }\r\n    }\r\n\r\n    /**\r\n     * @dev Imitates a Solidity high-level call (i.e. a regular function call to a contract), relaxing the requirement\r\n     * on the return value: the return value is optional (but if data is returned, it must not be false).\r\n     * @param token The token targeted by the call.\r\n     * @param data The call data (encoded using abi.encode or one of its variants).\r\n     *\r\n     * This is a variant of {_callOptionalReturn} that silents catches all reverts and returns a bool instead.\r\n     */\r\n    function _callOptionalReturnBool(\r\n        IERC20 token,\r\n        bytes memory data\r\n    ) private returns (bool) {\r\n        // We need to perform a low level call here, to bypass Solidity's return data size checking mechanism, since\r\n        // we're implementing it ourselves. We cannot use {Address-functionCall} here since this should return false\r\n        // and not revert is the subcall reverts.\r\n\r\n        (bool success, bytes memory returndata) = address(token).call(data);\r\n        return\r\n            success &&\r\n            (returndata.length == 0 || abi.decode(returndata, (bool))) &&\r\n            address(token).code.length > 0;\r\n    }\r\n}\r\n\r\ncontract STAKING is Ownable {\r\n    ERC20 public stakingToken;\r\n    \r\n    uint256 public rewardRate1Days = 5;  //   5% APR Reward\r\n    uint256 public rewardRate7Days = 50; //  50% APR Reward\r\n    uint256 public rewardRate30Days = 210; //  210% APR Reward\r\n    uint256 public rewardRate90Days = 1000; // 1000% APR Reward\r\n\r\n    struct Stake {\r\n        uint256 amount;\r\n        uint256 startTime;\r\n        uint256 endTime;\r\n        uint256 rewardRate;\r\n        bool withdrawn;\r\n    }\r\n\r\n    mapping(address => Stake[]) public stakes;\r\n\r\n    event Staked(address indexed user, uint256 amount, uint256 lockPeriod, uint256 rewardRate);\r\n    event Unstaked(address indexed user, uint256 amount, uint256 reward);\r\n    \r\n    constructor(ERC20 _stakingToken) {\r\n        stakingToken = _stakingToken;\r\n    }\r\n\r\n    function stake(uint256 _amount, uint256 _lockPeriod) external  {\r\n        require(_amount >= 3000e18, \"MineX: Cannot stake  less than 3000 tokens\");\r\n        require(\r\n            _lockPeriod == 1 days ||\r\n            _lockPeriod == 7 days ||\r\n            _lockPeriod == 30 days ||\r\n            _lockPeriod == 90 days,\r\n            \"MineX: Invalid lock period\"\r\n        );\r\n\r\n        uint256 rewardRate = getRewardRate(_lockPeriod);\r\n\r\n        stakingToken.transferFrom(msg.sender, address(this), _amount);\r\n\r\n        stakes[msg.sender].push(\r\n            Stake({\r\n                amount: _amount,\r\n                startTime: block.timestamp,\r\n                endTime: block.timestamp + _lockPeriod,\r\n                rewardRate: rewardRate,\r\n                withdrawn: false\r\n            })\r\n        );\r\n\r\n        emit Staked(msg.sender, _amount, _lockPeriod, rewardRate);\r\n    }\r\n\r\n    function unstake(uint256 _stakeIndex) external  {\r\n        require(_stakeIndex < stakes[msg.sender].length, \"MineX: Invalid stake index\");\r\n        Stake storage userStake = stakes[msg.sender][_stakeIndex];\r\n        require(block.timestamp >= userStake.endTime, \"wait for unlocked\");\r\n        require(!userStake.withdrawn, \"MineX: Stake already withdrawn\");\r\n\r\n        uint256 amountToWithdraw = userStake.amount;\r\n        uint256 reward = calculateReward(msg.sender, _stakeIndex);\r\n        stakingToken.mint(address(this), reward);\r\n\r\n        userStake.withdrawn = true;\r\n        stakingToken.transfer(msg.sender, amountToWithdraw + reward);\r\n\r\n        emit Unstaked(msg.sender, amountToWithdraw, reward);\r\n    }\r\n\r\n    function getUserStakes(address _user) external view returns (Stake[] memory) {\r\n        return stakes[_user];\r\n    }\r\n\r\n    function setRewardRate(\r\n        uint256 _rewardRate1Days,\r\n        uint256 _rewardRate7Days,\r\n        uint256 _rewardRate30Days,\r\n        uint256 _rewardRate90Days) external  onlyOwner {\r\n            \r\n        rewardRate1Days = _rewardRate1Days;\r\n        rewardRate7Days = _rewardRate7Days;\r\n        rewardRate30Days = _rewardRate30Days;\r\n        rewardRate90Days = _rewardRate90Days;\r\n    }\r\n\r\n    function getRewardRate(uint256 _lockPeriod) public view returns (uint256) {\r\n        if (_lockPeriod == 1 days) return rewardRate1Days;\r\n        if (_lockPeriod == 7 days) return rewardRate7Days;\r\n        if (_lockPeriod == 30 days) return rewardRate30Days;\r\n        if (_lockPeriod == 90 days) return rewardRate90Days;\r\n        revert(\"MineX: Invalid lock period\");\r\n    }\r\n\r\n    function calculateReward(address _user, uint256 _stakeIndex) public view returns (uint256) {\r\n        Stake memory userStake = stakes[_user][_stakeIndex];\r\n        return (userStake.amount * userStake.rewardRate) / 100;\r\n    }\r\n}",
  "sourcePath": "D:\\SafeZone_Dashboard\\SafeZone_Dashboard\\contracts\\STAKING.sol",
  "compiler": {
    "name": "solc",
    "version": "0.8.29+commit.ab55807c.Emscripten.clang"
  },
  "schemaVersion": "3.4.14",
  "updatedAt": "2025-04-12T05:15:23.562Z",
  "devdoc": {
    "kind": "dev",
    "methods": {
      "owner()": {
        "details": "Returns the address of the current owner."
      },
      "renounceOwnership()": {
        "details": "Leaves the contract without owner. It will not be possible to call `onlyOwner` functions. Can only be called by the current owner. NOTE: Renouncing ownership will leave the contract without an owner, thereby disabling any functionality that is only available to the owner."
      },
      "transferOwnership(address)": {
        "details": "Transfers ownership of the contract to a new account (`newOwner`). Can only be called by the current owner."
      }
    },
    "version": 1
  },
  "userdoc": {
    "kind": "user",
    "methods": {},
    "version": 1
  }
}